:1000000011C008C107C106C105C104C103C102C1B5
:100010007FC000C1FFC0FEC0FDC0FCC0FBC00060CF
:100020000064800011241FBECFE5D2E0DEBFCDBF4B
:10003000EEE1F0E040E017C0B591A5913591259132
:10004000059107FD0CC095918591EF01F92FE82FDF
:1000500005900D92A217B307D9F7FE0104C01D92B7
:10006000A217B307E1F7E332F40731F733D0CBC07F
:04007000F894FFCF32
:100074006115710531F0709361006093600061E077
:1000840070E0880F682B88B3846088BBB29BFECF76
:10009400000088B38E7F88BB000088B38B7F88BB49
:1000A40088B3816088BB779B0FC088B38B7F88BB84
:1000B4006FB980EF42D087B38E7F87BB8EEF3DD080
:1000C40080FF04C080E0089580E0089581E00895F1
:1000D40047D078D083D0789487B3886087BB86B3C1
:1000E400886086BB80916200813860F088B3886044
:1000F40088BB60E070E080E2BBDF8091630043D0A6
:0C01040053D0F0CF88B3877F88BBECCFCE
:100110001F920F920FB60F9211248F93809163005C
:100120008F5F8093630085B18093620088B782609F
:0E01300088BF8F910F900FBE0F901F901895F3
:10013E008EB900C08BE28DB9B29BFECF00008BE270
:10014E008DB9769BF6CF00C08FB19FEF9FB997B355
:06015E00916097BB0895BB
:1001640088B3816088BB88B3846088BB87B38460AC
:1001740087BB87B3816087BB8FEF8FB98AE28DB964
:0601840080EF8EB9089522
:10018A0098B39B7F98BB8FB980EFD4DF87B38E7FFC
:10019A0087BB8EEFCFDF80FF02C080E0089581E049
:0201AA000895B6
:1001AC0088B38E7F88BB88B3846088BBB29BFECF3C
:0C01BC00000088B3816088BB00C008957B
:1001C80085B78F7B85BF80B78F6980BF8FEF8EBD66
:0801D80087B3826087BB089524
:1001E0000AD087B1826287B983B1846183B986B14D
:0601F0008E6E86B9089531
:1001F6001ABC83B7856083BF12BE8EEF89BD089592
:0E020600EC0107D005D0CE0105D0CE0104D00A
:02021400F5CE25
:02021600089549
:02021800089547
:02021A00089545
:02021C0029DFD8
:00000001FF
