:1000000011C0A4C1A3C1A2C1A1C1A0C19FC19EC171
:1000100010C19CC19BC19AC199C198C197C1006090
:100020000064800011241FBECFE5D2E0DEBFCDBF4B
:10003000EEE1F0E040E017C0B591A5913591259132
:10004000059107FD0CC095918591EF01F92FE82FDF
:1000500005900D92A217B307D9F7FE0104C01D92B7
:10006000A217B307E1F7E332F40731F73CD063C1DD
:04007000F894FFCF32
:100074008EEA2CD180E02AD180E128D180E426D1F7
:1000840081E824D18FEC22D181EA20D188EC1ED1E1
:1000940086EA1CD188EA1AD18FE318D183ED16D1F0
:1000A40080E014D185ED12D180E810D189ED0ED114
:1000B40081EF0CD18AED0AD182E108D18BED06D112
:1000C40080E404D180E202D182E000D18DE8FED048
:1000D40084E1FCD084EAFAD086EAF8D08FEAF6D03C
:0200E40008957D
:1000E600D0D0C5DFFFD00AD1789487B3886087BBAC
:1000F60086B3886086BB60E070E080E228D080E04E
:10010600D3D080E0D1D0A9D080916200813880F030
:1001160088B3886088BB60E070E080E218D089E030
:10012600C3D080916300C0D098D080E046D005C08F
:1001360088B3877F88BB8FEF40D02FE788E391E0B5
:0E014600215080409040E1F700C00000DDCF66
:100154006115710531F0709361006093600061E096
:1001640070E0880F682B88B3846088BBB29BFECF95
:100174008DE08A95F1F7000088B38E7F88BB8AE012
:100184008A95F1F700C088B38B7F88BB88B3816000
:1001940088BB779B0FC088B38B7F88BB6FB980EF18
:1001A4002AD087B38E7F87BB8EEF25D080FF04C013
:0C01B40080E0089580E0089581E0089547
:1001C0001F93CF93DF93D82F10E011C080EB810FE6
:1001D0007FD080E07DD080E17BD0A6D0C0E003C09E
:1001E0008D2FB0D0CF5FCC23DCF7AED01F5F18309F
:0A01F00068F3DF91CF911F9108958D
:1001FA008EB98DE08A95F1F700008BE28DB9B29B3A
:10020A00FECF8AE08A95F1F700C08BE28DB9769B22
:10021A00F0CF8DE08A95F1F700008FB19FEF9FB97B
:08022A0097B3916097BB0895A2
:100232001F920F920FB60F9211248F938091630039
:100242008F5F8093630085B18093620088B782607C
:0E02520088BF8F910F900FBE0F901F901895D0
:1002600088B38E7F88BB88B3846088BBB29BFECF87
:100270008AE08A95F1F700C088B3816088BB8DE081
:080280008A95F1F700000895D2
:1002880088B3816088BB88B3846088BB87B3846087
:1002980087BB87B3816087BB8FEF8FB98AE28DB93F
:0602A80080EF8EB90895FD
:1002AE0098B39B7F98BB8FB980EFA0DF87B38E7F0B
:1002BE0087BB8EEF9BDF80FF02C080E0089581E058
:0202CE00089591
:1002D000CF93C82F60E070E08CE33CDF80E0E7DF85
:0A02E0008C2FE5DFBDDFCF910895FC
:1002EA0085B78F7B85BF80B78F6980BF8FEF8EBD43
:0802FA0087B3826087BB089501
:100302000AD087B1826287B983B1846183B986B129
:060312008E6E86B908950D
:100318001ABC83B7856083BF12BE8EEF89BD08956E
:0E03280060E070E08CE312DF80E4BDDF08953A
:0E033600EC010BD009D0CE0109D0CE0108D0C9
:04034400B4DF089585
:040348008BDF0895AA
:02034C0059CE88
:02034E00089510
:0203500008950E
:0203520008950C
:020354008DDE3C
:00000001FF
