:1000000011C038C037C036C035C034C033C032C06C
:1000100096C030C02FC02EC02DC02CC02BC0006099
:100020000064800011241FBECFE5D2E0DEBFCDBF4B
:10003000EEE1F0E040E017C0B591A5913591259132
:10004000059107FD0CC095918591EF01F92FE82FDF
:1000500005900D92A217B307D9F7FE0104C01D92B7
:10006000A217B307E1F7E332F40731F77AD0B7C04C
:04007000F894FFCF32
:02007400C5CFF6
:100076008EB98BE295E09A95F1F700008DB9B29BA7
:10008600FECF92E09A95F1F700C08DB9769BF2CF3C
:1000960085E08A95F1F700008FB19FEF9FB9B89A76
:0200A6000895BB
:1000A800C09AC29ABA9AB89A8FEF8FB98AE28DB974
:0600B80080EF8EB90895EF
:1000BE00C2988FB980EFD8DFB8988EEFD5DF8095D4
:0400CE0081700895A0
:1000D20061157105B9F0709361006093600091E061
:1000E200C29AB29BFECF22E02A95F1F700C0C098D7
:1000F20022E02A95F1F700C0C298C09A779904C00D
:1001020080E0089590E0ECCFC298880F892B8FB9D8
:1001120080EFB0DFB8988EEFADDF809581700895E3
:10012200C098C29AB29BFECF82E08A95F1F700C0D6
:0C013200C09A85E08A95F1F7000008955E
:10013E008F938FB78F93809163008F5F809363004F
:10014E0085B18093620088B7826088BF8F918FBF20
:04015E008F911895D0
:10016200A2DF85B78F7B85BF80B78F6980BF8FEF96
:100172008EBDB99A1ABC83B7856083BF12BE8EEF5B
:1001820089BD87B1826287B983B1846183B986B13F
:100192008E6E86B97894BB9AB39A60E070E080E282
:1001A20097DF80E08BDF80E089DFBADF8091620039
:1001B200813828F4C398809162008138D8F3C39AB9
:1001C20060E070E080E284DF89E078DF80916300A4
:0601D20075DFA6DFEBCF94
:0201D800089588
:0201DA00089586
:0201DC00089584
:0E01DE00EC01FCDFFADFCE01FADFCE0100D02B
:0201EC0041DFF1
:00000001FF
